{
  "_format": "hh-sol-artifact-1",
  "contractName": "OracleUpgradeable",
  "sourceName": "contracts/OracleUpgradeable.sol",
  "abi": [
    {
      "anonymous": false,
      "inputs": [
        {
          "indexed": false,
          "internalType": "uint8",
          "name": "version",
          "type": "uint8"
        }
      ],
      "name": "Initialized",
      "type": "event"
    },
    {
      "inputs": [],
      "name": "FN_NUM_GET_CONFIG_VARIABLE_ADDRESS",
      "outputs": [
        {
          "internalType": "address",
          "name": "",
          "type": "address"
        }
      ],
      "stateMutability": "view",
      "type": "function"
    },
    {
      "inputs": [],
      "name": "FN_NUM_GET_CONFIG_VARIABLE_STRING",
      "outputs": [
        {
          "internalType": "address",
          "name": "",
          "type": "address"
        }
      ],
      "stateMutability": "view",
      "type": "function"
    },
    {
      "inputs": [],
      "name": "FN_NUM_GET_CONFIG_VARIABLE_UINT256",
      "outputs": [
        {
          "internalType": "address",
          "name": "",
          "type": "address"
        }
      ],
      "stateMutability": "view",
      "type": "function"
    },
    {
      "inputs": [
        {
          "components": [
            {
              "internalType": "uint256",
              "name": "cid",
              "type": "uint256"
            },
            {
              "internalType": "string",
              "name": "uri",
              "type": "string"
            },
            {
              "internalType": "string",
              "name": "encoding",
              "type": "string"
            },
            {
              "internalType": "string",
              "name": "ethApi",
              "type": "string"
            },
            {
              "internalType": "string",
              "name": "params",
              "type": "string"
            },
            {
              "internalType": "string[]",
              "name": "jsps",
              "type": "string[]"
            },
            {
              "internalType": "uint256[]",
              "name": "trims",
              "type": "uint256[]"
            },
            {
              "internalType": "string",
              "name": "post",
              "type": "string"
            },
            {
              "internalType": "uint256",
              "name": "time",
              "type": "uint256"
            },
            {
              "internalType": "string[]",
              "name": "rslts",
              "type": "string[]"
            },
            {
              "components": [
                {
                  "internalType": "uint8",
                  "name": "v",
                  "type": "uint8"
                },
                {
                  "internalType": "bytes32",
                  "name": "r",
                  "type": "bytes32"
                },
                {
                  "internalType": "bytes32",
                  "name": "s",
                  "type": "bytes32"
                }
              ],
              "internalType": "struct IVerifier.Signature[]",
              "name": "sigs",
              "type": "tuple[]"
            }
          ],
          "internalType": "struct IOracle.OracleResponse",
          "name": "response",
          "type": "tuple"
        }
      ],
      "name": "combineOracleResponse",
      "outputs": [
        {
          "internalType": "string",
          "name": "wholeData",
          "type": "string"
        }
      ],
      "stateMutability": "pure",
      "type": "function"
    },
    {
      "inputs": [
        {
          "internalType": "uint256",
          "name": "nodeIndex",
          "type": "uint256"
        }
      ],
      "name": "getNodeAddress",
      "outputs": [
        {
          "internalType": "address",
          "name": "",
          "type": "address"
        }
      ],
      "stateMutability": "view",
      "type": "function"
    },
    {
      "inputs": [],
      "name": "getNumberOfNodesInSchain",
      "outputs": [
        {
          "internalType": "uint256",
          "name": "",
          "type": "uint256"
        }
      ],
      "stateMutability": "view",
      "type": "function"
    },
    {
      "inputs": [],
      "name": "getTrustNumberOfNodes",
      "outputs": [
        {
          "internalType": "uint256",
          "name": "",
          "type": "uint256"
        }
      ],
      "stateMutability": "view",
      "type": "function"
    },
    {
      "inputs": [],
      "name": "initialize",
      "outputs": [],
      "stateMutability": "nonpayable",
      "type": "function"
    },
    {
      "inputs": [
        {
          "internalType": "bytes32",
          "name": "hashedMessage",
          "type": "bytes32"
        },
        {
          "components": [
            {
              "internalType": "uint8",
              "name": "v",
              "type": "uint8"
            },
            {
              "internalType": "bytes32",
              "name": "r",
              "type": "bytes32"
            },
            {
              "internalType": "bytes32",
              "name": "s",
              "type": "bytes32"
            }
          ],
          "internalType": "struct IVerifier.Signature[]",
          "name": "signatures",
          "type": "tuple[]"
        }
      ],
      "name": "verifyArrayOfSignatures",
      "outputs": [
        {
          "internalType": "bool",
          "name": "",
          "type": "bool"
        }
      ],
      "stateMutability": "view",
      "type": "function"
    },
    {
      "inputs": [
        {
          "components": [
            {
              "internalType": "uint256",
              "name": "cid",
              "type": "uint256"
            },
            {
              "internalType": "string",
              "name": "uri",
              "type": "string"
            },
            {
              "internalType": "string",
              "name": "encoding",
              "type": "string"
            },
            {
              "internalType": "string",
              "name": "ethApi",
              "type": "string"
            },
            {
              "internalType": "string",
              "name": "params",
              "type": "string"
            },
            {
              "internalType": "string[]",
              "name": "jsps",
              "type": "string[]"
            },
            {
              "internalType": "uint256[]",
              "name": "trims",
              "type": "uint256[]"
            },
            {
              "internalType": "string",
              "name": "post",
              "type": "string"
            },
            {
              "internalType": "uint256",
              "name": "time",
              "type": "uint256"
            },
            {
              "internalType": "string[]",
              "name": "rslts",
              "type": "string[]"
            },
            {
              "components": [
                {
                  "internalType": "uint8",
                  "name": "v",
                  "type": "uint8"
                },
                {
                  "internalType": "bytes32",
                  "name": "r",
                  "type": "bytes32"
                },
                {
                  "internalType": "bytes32",
                  "name": "s",
                  "type": "bytes32"
                }
              ],
              "internalType": "struct IVerifier.Signature[]",
              "name": "sigs",
              "type": "tuple[]"
            }
          ],
          "internalType": "struct IOracle.OracleResponse",
          "name": "response",
          "type": "tuple"
        }
      ],
      "name": "verifyOracleResponse",
      "outputs": [
        {
          "internalType": "bool",
          "name": "",
          "type": "bool"
        }
      ],
      "stateMutability": "view",
      "type": "function"
    },
    {
      "inputs": [
        {
          "internalType": "uint256",
          "name": "nodeIndex",
          "type": "uint256"
        },
        {
          "internalType": "bytes32",
          "name": "hashedMessage",
          "type": "bytes32"
        },
        {
          "components": [
            {
              "internalType": "uint8",
              "name": "v",
              "type": "uint8"
            },
            {
              "internalType": "bytes32",
              "name": "r",
              "type": "bytes32"
            },
            {
              "internalType": "bytes32",
              "name": "s",
              "type": "bytes32"
            }
          ],
          "internalType": "struct IVerifier.Signature",
          "name": "signature",
          "type": "tuple"
        }
      ],
      "name": "verifySignature",
      "outputs": [
        {
          "internalType": "bool",
          "name": "",
          "type": "bool"
        }
      ],
      "stateMutability": "view",
      "type": "function"
    }
  ],
  "bytecode": "0x608060405234801561001057600080fd5b50611cba806100206000396000f3fe608060405234801561001057600080fd5b50600436106100a95760003560e01c80638e372c15116100715780638e372c151461012957806396ff22ba14610131578063a113f65714610144578063ab2a58531461014c578063c3becd8314610154578063e2ea8f7a1461017457600080fd5b80632c61a469146100ae578063446e847f146100c95780636703afa4146100f45780636ae7ff60146101175780638129fc1c1461011f575b600080fd5b6100b6610187565b6040519081526020015b60405180910390f35b6100dc6100d7366004611137565b6101b1565b6040516001600160a01b0390911681526020016100c0565b61010761010236600461141b565b6101ee565b60405190151581526020016100c0565b6100dc601481565b61012761033c565b005b6100b66103a9565b61010761013f3660046115c4565b6103d1565b6100dc601581565b6100dc601381565b61016761016236600461141b565b61040f565b6040516100c0919061162a565b61010761018236600461165d565b610453565b6000806101926103a9565b905060036101a18260026116ba565b6101ab91906116e8565b91505090565b6000806101bd8361053e565b6040516020016101cd91906116fc565b60405160208183030381529060405290506101e78161063f565b9392505050565b6000808260600151511180610240575060008260a001515111801561021d5750816101200151518260a0015151145b8015610240575060c08201515115806102405750816101200151518260c0015151145b6102915760405162461bcd60e51b815260206004820152601b60248201527f496e636f7272656374206e756d626572206f6620726573756c7473000000000060448201526064015b60405180910390fd5b6102996103a9565b82610140015151146102ed5760405162461bcd60e51b815260206004820152601c60248201527f496e76616c6964206c656e677468206f66207369676e617475726573000000006044820152606401610288565b60006102f88361040f565b905060008160405160200161030d9190611752565b60405160208183030381529060405280519060200120905061033481856101400151610453565b949350505050565b60006103486001610723565b90508015610360576000805461ff0019166101001790555b80156103a6576000805461ff0019169055604051600181527f7f26b83ff96e1f2b6a682f133852f6798a09c465da95921460cefb38474024989060200160405180910390a15b50565b60006103cc604051806060016040528060228152602001611c63602291396107ab565b905090565b6000806103dd856101b1565b8351602085015160408601519293506103f9928792919061088f565b6001600160a01b03918216911614949350505050565b606061044d826000015183602001518460400151856060015186608001518760a001518860c001518960e001518a61010001518b61012001516108b7565b92915050565b600080805b835181101561052c578381815181106104735761047361176e565b60200260200101516000015160ff1660001415806104b157506000801b8482815181106104a2576104a261176e565b60200260200101516020015114155b806104dc57506000801b8482815181106104cd576104cd61176e565b60200260200101516040015114155b8015610507575061050781868684815181106104fa576104fa61176e565b60200260200101516103d1565b1561051a578161051681611784565b9250505b8061052481611784565b915050610458565b50610535610187565b11159392505050565b6060816000036105655750506040805180820190915260018152600360fc1b602082015290565b8160005b811561058f578061057981611784565b91506105889050600a836116e8565b9150610569565b60008167ffffffffffffffff8111156105aa576105aa611150565b6040519080825280601f01601f1916602001820160405280156105d4576020820181803683370190505b5090505b8415610334576105e960018361179d565b91506105f6600a866117b4565b6106019060306116ba565b60f81b8183815181106106165761061661176e565b60200101906001600160f81b031916908160001a905350610638600a866116e8565b94506105d8565b600080600060146001600160a01b03168451856040516020016106639291906117c8565b60408051601f198184030181529082905261067d91611752565b600060405180830381855afa9150503d80600081146106b8576040519150601f19603f3d011682016040523d82523d6000602084013e6106bd565b606091505b50915091508161070f5760405162461bcd60e51b815260206004820152601960248201527f47657420636f6e6669672061646472657373206661696c6564000000000000006044820152606401610288565b8080602001905181019061033491906117ee565b60008054610100900460ff161561076a578160ff1660011480156107465750303b155b6107625760405162461bcd60e51b815260040161028890611817565b506000919050565b60005460ff8084169116106107915760405162461bcd60e51b815260040161028890611817565b506000805460ff191660ff92909216919091179055600190565b600080600060136001600160a01b03168451856040516020016107cf9291906117c8565b60408051601f19818403018152908290526107e991611752565b600060405180830381855afa9150503d8060008114610824576040519150601f19603f3d011682016040523d82523d6000602084013e610829565b606091505b50915091508161087b5760405162461bcd60e51b815260206004820152601960248201527f47657420636f6e6669672075696e74323536206661696c6564000000000000006044820152606401610288565b808060200190518101906103349190611865565b60008060006108a087878787610b3e565b915091506108ad81610c2b565b5095945050505050565b606060006108c48c61053e565b8b8b6040516020016108d89392919061187e565b60408051601f1981840301815260208301909152600082528a519092501561090b576109048a8a610de1565b9050610919565b610916888888610e99565b90505b60006109248661053e565b6040516020016109349190611914565b60408051601f1981840301815282820190915260098252682272736c7473223a5b60b81b6020830152915060005b60018751610970919061179d565b811015610a4e57816109b788838151811061098d5761098d61176e565b6020026020010151604051806040016040528060048152602001631b9d5b1b60e21b8152506110de565b156109df57604051806040016040528060058152602001641b9d5b1b0b60da1b815250610a19565b8782815181106109f1576109f161176e565b6020026020010151604051602001610a09919061194f565b6040516020818303038152906040525b604051602001610a2a929190611985565b60405160208183030381529060405291508080610a4690611784565b915050610962565b5080610a728760018951610a62919061179d565b8151811061098d5761098d61176e565b15610a9b57604051806040016040528060068152602001651b9d5b1b174b60d21b815250610ae2565b8660018851610aaa919061179d565b81518110610aba57610aba61176e565b6020026020010151604051602001610ad291906119b4565b6040516020818303038152906040525b604051602001610af3929190611985565b604051602081830303815290604052905083838383604051602001610b1b94939291906119eb565b6040516020818303038152906040529450505050509a9950505050505050505050565b6000807f7fffffffffffffffffffffffffffffff5d576e7357a4501ddfe92f46681b20a0831115610b755750600090506003610c22565b8460ff16601b14158015610b8d57508460ff16601c14155b15610b9e5750600090506004610c22565b6040805160008082526020820180845289905260ff881692820192909252606081018690526080810185905260019060a0016020604051602081039080840390855afa158015610bf2573d6000803e3d6000fd5b5050604051601f1901519150506001600160a01b038116610c1b57600060019250925050610c22565b9150600090505b94509492505050565b6000816004811115610c3f57610c3f611a42565b03610c475750565b6001816004811115610c5b57610c5b611a42565b03610ca85760405162461bcd60e51b815260206004820152601860248201527f45434453413a20696e76616c6964207369676e617475726500000000000000006044820152606401610288565b6002816004811115610cbc57610cbc611a42565b03610d095760405162461bcd60e51b815260206004820152601f60248201527f45434453413a20696e76616c6964207369676e6174757265206c656e677468006044820152606401610288565b6003816004811115610d1d57610d1d611a42565b03610d755760405162461bcd60e51b815260206004820152602260248201527f45434453413a20696e76616c6964207369676e6174757265202773272076616c604482015261756560f01b6064820152608401610288565b6004816004811115610d8957610d89611a42565b036103a65760405162461bcd60e51b815260206004820152602260248201527f45434453413a20696e76616c6964207369676e6174757265202776272076616c604482015261756560f01b6064820152608401610288565b6060600083604051602001610df69190611a58565b6040516020818303038152906040529050600084511115610e345783604051602001610e229190611a58565b60405160208183030381529060405290505b604080516020810190915260008152835115610e6d5783604051602001610e5b9190611a97565b60405160208183030381529060405290505b8181604051602001610e80929190611985565b6040516020818303038152906040529250505092915050565b60408051602081019091526000815283516060919015610f875750604080518082019091526008815267226a737073223a5b60c01b602082015260005b60018651610ee4919061179d565b811015610f3b5781868281518110610efe57610efe61176e565b6020026020010151604051602001610f17929190611ad4565b60405160208183030381529060405291508080610f3390611784565b915050610ed6565b50808560018751610f4c919061179d565b81518110610f5c57610f5c61176e565b6020026020010151604051602001610f75929190611b1f565b60405160208183030381529060405290505b6040805160208101909152600081528451156110755750604080518082019091526009815268227472696d73223a5b60b81b602082015260005b60018651610fcf919061179d565b81101561102e5781610ff9878381518110610fec57610fec61176e565b602002602001015161053e565b60405160200161100a929190611b6b565b6040516020818303038152906040529150808061102690611784565b915050610fc1565b50806110528660018851611042919061179d565b81518110610fec57610fec61176e565b604051602001611063929190611ba6565b60405160208183030381529060405290505b6040805160208101909152600081528451156110ae578460405160200161109c9190611be2565b60405160208183030381529060405290505b8282826040516020016110c393929190611c1f565b60405160208183030381529060405293505050509392505050565b6000816040516020016110f19190611752565b60405160208183030381529060405280519060200120836040516020016111189190611752565b6040516020818303038152906040528051906020012014905092915050565b60006020828403121561114957600080fd5b5035919050565b634e487b7160e01b600052604160045260246000fd5b604051610160810167ffffffffffffffff8111828210171561118a5761118a611150565b60405290565b604051601f8201601f1916810167ffffffffffffffff811182821017156111b9576111b9611150565b604052919050565b600082601f8301126111d257600080fd5b813567ffffffffffffffff8111156111ec576111ec611150565b6111ff601f8201601f1916602001611190565b81815284602083860101111561121457600080fd5b816020850160208301376000918101602001919091529392505050565b600067ffffffffffffffff82111561124b5761124b611150565b5060051b60200190565b600082601f83011261126657600080fd5b8135602061127b61127683611231565b611190565b82815260059290921b8401810191818101908684111561129a57600080fd5b8286015b848110156112da57803567ffffffffffffffff8111156112be5760008081fd5b6112cc8986838b01016111c1565b84525091830191830161129e565b509695505050505050565b600082601f8301126112f657600080fd5b8135602061130661127683611231565b82815260059290921b8401810191818101908684111561132557600080fd5b8286015b848110156112da5780358352918301918301611329565b60006060828403121561135257600080fd5b6040516060810181811067ffffffffffffffff8211171561137557611375611150565b604052905080823560ff8116811461138c57600080fd5b8082525060208301356020820152604083013560408201525092915050565b600082601f8301126113bc57600080fd5b813560206113cc61127683611231565b828152606092830285018201928282019190878511156113eb57600080fd5b8387015b8581101561140e576114018982611340565b84529284019281016113ef565b5090979650505050505050565b60006020828403121561142d57600080fd5b813567ffffffffffffffff8082111561144557600080fd5b90830190610160828603121561145a57600080fd5b611462611166565b8235815260208301358281111561147857600080fd5b611484878286016111c1565b60208301525060408301358281111561149c57600080fd5b6114a8878286016111c1565b6040830152506060830135828111156114c057600080fd5b6114cc878286016111c1565b6060830152506080830135828111156114e457600080fd5b6114f0878286016111c1565b60808301525060a08301358281111561150857600080fd5b61151487828601611255565b60a08301525060c08301358281111561152c57600080fd5b611538878286016112e5565b60c08301525060e08301358281111561155057600080fd5b61155c878286016111c1565b60e0830152506101008381013590820152610120808401358381111561158157600080fd5b61158d88828701611255565b82840152505061014080840135838111156115a757600080fd5b6115b3888287016113ab565b918301919091525095945050505050565b600080600060a084860312156115d957600080fd5b83359250602084013591506115f18560408601611340565b90509250925092565b60005b838110156116155781810151838201526020016115fd565b83811115611624576000848401525b50505050565b60208152600082518060208401526116498160408501602087016115fa565b601f01601f19169190910160400192915050565b6000806040838503121561167057600080fd5b82359150602083013567ffffffffffffffff81111561168e57600080fd5b61169a858286016113ab565b9150509250929050565b634e487b7160e01b600052601160045260246000fd5b600082198211156116cd576116cd6116a4565b500190565b634e487b7160e01b600052601260045260246000fd5b6000826116f7576116f76116d2565b500490565b7f736b616c65436f6e6669672e73436861696e2e6e6f6465732e5b00000000000081526000825161173481601a8501602087016115fa565b662e9737bbb732b960c91b601a939091019283015250602101919050565b600082516117648184602087016115fa565b9190910192915050565b634e487b7160e01b600052603260045260246000fd5b600060018201611796576117966116a4565b5060010190565b6000828210156117af576117af6116a4565b500390565b6000826117c3576117c36116d2565b500690565b828152600082516117e08160208501602087016115fa565b919091016020019392505050565b60006020828403121561180057600080fd5b81516001600160a01b03811681146101e757600080fd5b6020808252602e908201527f496e697469616c697a61626c653a20636f6e747261637420697320616c72656160408201526d191e481a5b9a5d1a585b1a5e995960921b606082015260800190565b60006020828403121561187757600080fd5b5051919050565b663d9131b4b2111d60c91b815283516000906118a18160078501602089016115fa565b6716113ab934911d1160c11b60079184019182015284516118c981600f8401602089016115fa565b6d11161132b731b7b234b733911d1160911b600f929091019182015283516118f881601d8401602088016115fa565b61088b60f21b601d9290910191820152601f0195945050505050565b66113a34b6b2911d60c91b815281516000906119378160078501602087016115fa565b600b60fa1b6007939091019283015250600801919050565b601160f91b8152815160009061196c8160018501602087016115fa565b61088b60f21b6001939091019283015250600301919050565b600083516119978184602088016115fa565b8351908301906119ab8183602088016115fa565b01949350505050565b601160f91b815281516000906119d18160018501602087016115fa565b6208974b60ea1b6001939091019283015250600401919050565b600085516119fd818460208a016115fa565b855190830190611a11818360208a016115fa565b8551910190611a248183602089016115fa565b8451910190611a378183602088016115fa565b019695505050505050565b634e487b7160e01b600052602160045260246000fd5b691132ba3420b834911d1160b11b81528151600090611a7e81600a8501602087016115fa565b61088b60f21b600a939091019283015250600c01919050565b68113830b930b6b9911d60b91b81528151600090611abc8160098501602087016115fa565b600b60fa1b6009939091019283015250600a01919050565b60008351611ae68184602088016115fa565b601160f91b9083019081528351611b048160018401602088016115fa565b61088b60f21b60019290910191820152600301949350505050565b60008351611b318184602088016115fa565b601160f91b9083019081528351611b4f8160018401602088016115fa565b6208974b60ea1b60019290910191820152600401949350505050565b60008351611b7d8184602088016115fa565b835190830190611b918183602088016115fa565b600b60fa1b9101908152600101949350505050565b60008351611bb88184602088016115fa565b835190830190611bcc8183602088016115fa565b61174b60f21b9101908152600201949350505050565b67113837b9ba111d1160c11b81528151600090611c068160088501602087016115fa565b61088b60f21b6008939091019283015250600a01919050565b60008451611c318184602089016115fa565b845190830190611c458183602089016115fa565b8451910190611c588183602088016115fa565b019594505050505056fe736b616c65436f6e6669672e6e6f6465496e666f2e77616c6c6574732e696d612e6ea2646970667358221220d874ffcd2502a80646bfed493f9537996770599749d4424bcb4267e88716aafd64736f6c634300080d0033",
  "linkReferences": {},
  "deployedLinkReferences": {}
}