{
  "_format": "hh-sol-artifact-1",
  "contractName": "Oracle",
  "sourceName": "contracts/Oracle.sol",
  "abi": [
    {
      "inputs": [],
      "name": "FN_NUM_GET_CONFIG_VARIABLE_ADDRESS",
      "outputs": [
        {
          "internalType": "address",
          "name": "",
          "type": "address"
        }
      ],
      "stateMutability": "view",
      "type": "function"
    },
    {
      "inputs": [],
      "name": "FN_NUM_GET_CONFIG_VARIABLE_STRING",
      "outputs": [
        {
          "internalType": "address",
          "name": "",
          "type": "address"
        }
      ],
      "stateMutability": "view",
      "type": "function"
    },
    {
      "inputs": [],
      "name": "FN_NUM_GET_CONFIG_VARIABLE_UINT256",
      "outputs": [
        {
          "internalType": "address",
          "name": "",
          "type": "address"
        }
      ],
      "stateMutability": "view",
      "type": "function"
    },
    {
      "inputs": [
        {
          "components": [
            {
              "internalType": "uint256",
              "name": "cid",
              "type": "uint256"
            },
            {
              "internalType": "string",
              "name": "uri",
              "type": "string"
            },
            {
              "internalType": "string",
              "name": "encoding",
              "type": "string"
            },
            {
              "internalType": "string",
              "name": "ethApi",
              "type": "string"
            },
            {
              "internalType": "string",
              "name": "params",
              "type": "string"
            },
            {
              "internalType": "string[]",
              "name": "jsps",
              "type": "string[]"
            },
            {
              "internalType": "uint256[]",
              "name": "trims",
              "type": "uint256[]"
            },
            {
              "internalType": "string",
              "name": "post",
              "type": "string"
            },
            {
              "internalType": "uint256",
              "name": "time",
              "type": "uint256"
            },
            {
              "internalType": "string[]",
              "name": "rslts",
              "type": "string[]"
            },
            {
              "components": [
                {
                  "internalType": "uint8",
                  "name": "v",
                  "type": "uint8"
                },
                {
                  "internalType": "bytes32",
                  "name": "r",
                  "type": "bytes32"
                },
                {
                  "internalType": "bytes32",
                  "name": "s",
                  "type": "bytes32"
                }
              ],
              "internalType": "struct IVerifier.Signature[]",
              "name": "sigs",
              "type": "tuple[]"
            }
          ],
          "internalType": "struct IOracle.OracleResponse",
          "name": "response",
          "type": "tuple"
        }
      ],
      "name": "combineOracleResponse",
      "outputs": [
        {
          "internalType": "string",
          "name": "wholeData",
          "type": "string"
        }
      ],
      "stateMutability": "pure",
      "type": "function"
    },
    {
      "inputs": [
        {
          "internalType": "uint256",
          "name": "nodeIndex",
          "type": "uint256"
        }
      ],
      "name": "getNodeAddress",
      "outputs": [
        {
          "internalType": "address",
          "name": "",
          "type": "address"
        }
      ],
      "stateMutability": "view",
      "type": "function"
    },
    {
      "inputs": [],
      "name": "getNumberOfNodesInSchain",
      "outputs": [
        {
          "internalType": "uint256",
          "name": "",
          "type": "uint256"
        }
      ],
      "stateMutability": "view",
      "type": "function"
    },
    {
      "inputs": [],
      "name": "getTrustNumberOfNodes",
      "outputs": [
        {
          "internalType": "uint256",
          "name": "",
          "type": "uint256"
        }
      ],
      "stateMutability": "view",
      "type": "function"
    },
    {
      "inputs": [
        {
          "internalType": "bytes32",
          "name": "hashedMessage",
          "type": "bytes32"
        },
        {
          "components": [
            {
              "internalType": "uint8",
              "name": "v",
              "type": "uint8"
            },
            {
              "internalType": "bytes32",
              "name": "r",
              "type": "bytes32"
            },
            {
              "internalType": "bytes32",
              "name": "s",
              "type": "bytes32"
            }
          ],
          "internalType": "struct IVerifier.Signature[]",
          "name": "signatures",
          "type": "tuple[]"
        }
      ],
      "name": "verifyArrayOfSignatures",
      "outputs": [
        {
          "internalType": "bool",
          "name": "",
          "type": "bool"
        }
      ],
      "stateMutability": "view",
      "type": "function"
    },
    {
      "inputs": [
        {
          "components": [
            {
              "internalType": "uint256",
              "name": "cid",
              "type": "uint256"
            },
            {
              "internalType": "string",
              "name": "uri",
              "type": "string"
            },
            {
              "internalType": "string",
              "name": "encoding",
              "type": "string"
            },
            {
              "internalType": "string",
              "name": "ethApi",
              "type": "string"
            },
            {
              "internalType": "string",
              "name": "params",
              "type": "string"
            },
            {
              "internalType": "string[]",
              "name": "jsps",
              "type": "string[]"
            },
            {
              "internalType": "uint256[]",
              "name": "trims",
              "type": "uint256[]"
            },
            {
              "internalType": "string",
              "name": "post",
              "type": "string"
            },
            {
              "internalType": "uint256",
              "name": "time",
              "type": "uint256"
            },
            {
              "internalType": "string[]",
              "name": "rslts",
              "type": "string[]"
            },
            {
              "components": [
                {
                  "internalType": "uint8",
                  "name": "v",
                  "type": "uint8"
                },
                {
                  "internalType": "bytes32",
                  "name": "r",
                  "type": "bytes32"
                },
                {
                  "internalType": "bytes32",
                  "name": "s",
                  "type": "bytes32"
                }
              ],
              "internalType": "struct IVerifier.Signature[]",
              "name": "sigs",
              "type": "tuple[]"
            }
          ],
          "internalType": "struct IOracle.OracleResponse",
          "name": "response",
          "type": "tuple"
        }
      ],
      "name": "verifyOracleResponse",
      "outputs": [
        {
          "internalType": "bool",
          "name": "",
          "type": "bool"
        }
      ],
      "stateMutability": "view",
      "type": "function"
    },
    {
      "inputs": [
        {
          "internalType": "uint256",
          "name": "nodeIndex",
          "type": "uint256"
        },
        {
          "internalType": "bytes32",
          "name": "hashedMessage",
          "type": "bytes32"
        },
        {
          "components": [
            {
              "internalType": "uint8",
              "name": "v",
              "type": "uint8"
            },
            {
              "internalType": "bytes32",
              "name": "r",
              "type": "bytes32"
            },
            {
              "internalType": "bytes32",
              "name": "s",
              "type": "bytes32"
            }
          ],
          "internalType": "struct IVerifier.Signature",
          "name": "signature",
          "type": "tuple"
        }
      ],
      "name": "verifySignature",
      "outputs": [
        {
          "internalType": "bool",
          "name": "",
          "type": "bool"
        }
      ],
      "stateMutability": "view",
      "type": "function"
    }
  ],
  "bytecode": "0x608060405234801561001057600080fd5b50611b65806100206000396000f3fe608060405234801561001057600080fd5b506004361061009e5760003560e01c806396ff22ba1161006657806396ff22ba1461011c578063a113f6571461012f578063ab2a585314610137578063c3becd831461013f578063e2ea8f7a1461015f57600080fd5b80632c61a469146100a3578063446e847f146100be5780636703afa4146100e95780636ae7ff601461010c5780638e372c1514610114575b600080fd5b6100ab610172565b6040519081526020015b60405180910390f35b6100d16100cc366004611030565b61019c565b6040516001600160a01b0390911681526020016100b5565b6100fc6100f7366004611314565b6101d9565b60405190151581526020016100b5565b6100d1601481565b6100ab610327565b6100fc61012a3660046114bd565b61034f565b6100d1601581565b6100d1601381565b61015261014d366004611314565b61038d565b6040516100b59190611523565b6100fc61016d366004611556565b6103d1565b60008061017d610327565b9050600361018c8260026115b3565b61019691906115e1565b91505090565b6000806101a8836104bc565b6040516020016101b891906115f5565b60405160208183030381529060405290506101d2816105bd565b9392505050565b600080826060015151118061022b575060008260a00151511180156102085750816101200151518260a0015151145b801561022b575060c082015151158061022b5750816101200151518260c0015151145b61027c5760405162461bcd60e51b815260206004820152601b60248201527f496e636f7272656374206e756d626572206f6620726573756c7473000000000060448201526064015b60405180910390fd5b610284610327565b82610140015151146102d85760405162461bcd60e51b815260206004820152601c60248201527f496e76616c6964206c656e677468206f66207369676e617475726573000000006044820152606401610273565b60006102e38361038d565b90506000816040516020016102f8919061164b565b60405160208183030381529060405280519060200120905061031f818561014001516103d1565b949350505050565b600061034a604051806060016040528060228152602001611b0e602291396106a1565b905090565b60008061035b8561019c565b8351602085015160408601519293506103779287929190610785565b6001600160a01b03918216911614949350505050565b60606103cb826000015183602001518460400151856060015186608001518760a001518860c001518960e001518a61010001518b61012001516107ad565b92915050565b600080805b83518110156104aa578381815181106103f1576103f1611667565b60200260200101516000015160ff16600014158061042f57506000801b84828151811061042057610420611667565b60200260200101516020015114155b8061045a57506000801b84828151811061044b5761044b611667565b60200260200101516040015114155b80156104855750610485818686848151811061047857610478611667565b602002602001015161034f565b1561049857816104948161167d565b9250505b806104a28161167d565b9150506103d6565b506104b3610172565b11159392505050565b6060816000036104e35750506040805180820190915260018152600360fc1b602082015290565b8160005b811561050d57806104f78161167d565b91506105069050600a836115e1565b91506104e7565b60008167ffffffffffffffff81111561052857610528611049565b6040519080825280601f01601f191660200182016040528015610552576020820181803683370190505b5090505b841561031f57610567600183611696565b9150610574600a866116ad565b61057f9060306115b3565b60f81b81838151811061059457610594611667565b60200101906001600160f81b031916908160001a9053506105b6600a866115e1565b9450610556565b600080600060146001600160a01b03168451856040516020016105e19291906116c1565b60408051601f19818403018152908290526105fb9161164b565b600060405180830381855afa9150503d8060008114610636576040519150601f19603f3d011682016040523d82523d6000602084013e61063b565b606091505b50915091508161068d5760405162461bcd60e51b815260206004820152601960248201527f47657420636f6e6669672061646472657373206661696c6564000000000000006044820152606401610273565b8080602001905181019061031f91906116e7565b600080600060136001600160a01b03168451856040516020016106c59291906116c1565b60408051601f19818403018152908290526106df9161164b565b600060405180830381855afa9150503d806000811461071a576040519150601f19603f3d011682016040523d82523d6000602084013e61071f565b606091505b5091509150816107715760405162461bcd60e51b815260206004820152601960248201527f47657420636f6e6669672075696e74323536206661696c6564000000000000006044820152606401610273565b8080602001905181019061031f9190611710565b600080600061079687878787610a34565b915091506107a381610b21565b5095945050505050565b606060006107ba8c6104bc565b8b8b6040516020016107ce93929190611729565b60408051601f1981840301815260208301909152600082528a5190925015610801576107fa8a8a610cda565b905061080f565b61080c888888610d92565b90505b600061081a866104bc565b60405160200161082a91906117bf565b60408051601f1981840301815282820190915260098252682272736c7473223a5b60b81b6020830152915060005b600187516108669190611696565b81101561094457816108ad88838151811061088357610883611667565b6020026020010151604051806040016040528060048152602001631b9d5b1b60e21b815250610fd7565b156108d557604051806040016040528060058152602001641b9d5b1b0b60da1b81525061090f565b8782815181106108e7576108e7611667565b60200260200101516040516020016108ff91906117fa565b6040516020818303038152906040525b604051602001610920929190611830565b6040516020818303038152906040529150808061093c9061167d565b915050610858565b508061096887600189516109589190611696565b8151811061088357610883611667565b1561099157604051806040016040528060068152602001651b9d5b1b174b60d21b8152506109d8565b86600188516109a09190611696565b815181106109b0576109b0611667565b60200260200101516040516020016109c8919061185f565b6040516020818303038152906040525b6040516020016109e9929190611830565b604051602081830303815290604052905083838383604051602001610a119493929190611896565b6040516020818303038152906040529450505050509a9950505050505050505050565b6000807f7fffffffffffffffffffffffffffffff5d576e7357a4501ddfe92f46681b20a0831115610a6b5750600090506003610b18565b8460ff16601b14158015610a8357508460ff16601c14155b15610a945750600090506004610b18565b6040805160008082526020820180845289905260ff881692820192909252606081018690526080810185905260019060a0016020604051602081039080840390855afa158015610ae8573d6000803e3d6000fd5b5050604051601f1901519150506001600160a01b038116610b1157600060019250925050610b18565b9150600090505b94509492505050565b6000816004811115610b3557610b356118ed565b03610b3d5750565b6001816004811115610b5157610b516118ed565b03610b9e5760405162461bcd60e51b815260206004820152601860248201527f45434453413a20696e76616c6964207369676e617475726500000000000000006044820152606401610273565b6002816004811115610bb257610bb26118ed565b03610bff5760405162461bcd60e51b815260206004820152601f60248201527f45434453413a20696e76616c6964207369676e6174757265206c656e677468006044820152606401610273565b6003816004811115610c1357610c136118ed565b03610c6b5760405162461bcd60e51b815260206004820152602260248201527f45434453413a20696e76616c6964207369676e6174757265202773272076616c604482015261756560f01b6064820152608401610273565b6004816004811115610c7f57610c7f6118ed565b03610cd75760405162461bcd60e51b815260206004820152602260248201527f45434453413a20696e76616c6964207369676e6174757265202776272076616c604482015261756560f01b6064820152608401610273565b50565b6060600083604051602001610cef9190611903565b6040516020818303038152906040529050600084511115610d2d5783604051602001610d1b9190611903565b60405160208183030381529060405290505b604080516020810190915260008152835115610d665783604051602001610d549190611942565b60405160208183030381529060405290505b8181604051602001610d79929190611830565b6040516020818303038152906040529250505092915050565b60408051602081019091526000815283516060919015610e805750604080518082019091526008815267226a737073223a5b60c01b602082015260005b60018651610ddd9190611696565b811015610e345781868281518110610df757610df7611667565b6020026020010151604051602001610e1092919061197f565b60405160208183030381529060405291508080610e2c9061167d565b915050610dcf565b50808560018751610e459190611696565b81518110610e5557610e55611667565b6020026020010151604051602001610e6e9291906119ca565b60405160208183030381529060405290505b604080516020810190915260008152845115610f6e5750604080518082019091526009815268227472696d73223a5b60b81b602082015260005b60018651610ec89190611696565b811015610f275781610ef2878381518110610ee557610ee5611667565b60200260200101516104bc565b604051602001610f03929190611a16565b60405160208183030381529060405291508080610f1f9061167d565b915050610eba565b5080610f4b8660018851610f3b9190611696565b81518110610ee557610ee5611667565b604051602001610f5c929190611a51565b60405160208183030381529060405290505b604080516020810190915260008152845115610fa75784604051602001610f959190611a8d565b60405160208183030381529060405290505b828282604051602001610fbc93929190611aca565b60405160208183030381529060405293505050509392505050565b600081604051602001610fea919061164b565b6040516020818303038152906040528051906020012083604051602001611011919061164b565b6040516020818303038152906040528051906020012014905092915050565b60006020828403121561104257600080fd5b5035919050565b634e487b7160e01b600052604160045260246000fd5b604051610160810167ffffffffffffffff8111828210171561108357611083611049565b60405290565b604051601f8201601f1916810167ffffffffffffffff811182821017156110b2576110b2611049565b604052919050565b600082601f8301126110cb57600080fd5b813567ffffffffffffffff8111156110e5576110e5611049565b6110f8601f8201601f1916602001611089565b81815284602083860101111561110d57600080fd5b816020850160208301376000918101602001919091529392505050565b600067ffffffffffffffff82111561114457611144611049565b5060051b60200190565b600082601f83011261115f57600080fd5b8135602061117461116f8361112a565b611089565b82815260059290921b8401810191818101908684111561119357600080fd5b8286015b848110156111d357803567ffffffffffffffff8111156111b75760008081fd5b6111c58986838b01016110ba565b845250918301918301611197565b509695505050505050565b600082601f8301126111ef57600080fd5b813560206111ff61116f8361112a565b82815260059290921b8401810191818101908684111561121e57600080fd5b8286015b848110156111d35780358352918301918301611222565b60006060828403121561124b57600080fd5b6040516060810181811067ffffffffffffffff8211171561126e5761126e611049565b604052905080823560ff8116811461128557600080fd5b8082525060208301356020820152604083013560408201525092915050565b600082601f8301126112b557600080fd5b813560206112c561116f8361112a565b828152606092830285018201928282019190878511156112e457600080fd5b8387015b85811015611307576112fa8982611239565b84529284019281016112e8565b5090979650505050505050565b60006020828403121561132657600080fd5b813567ffffffffffffffff8082111561133e57600080fd5b90830190610160828603121561135357600080fd5b61135b61105f565b8235815260208301358281111561137157600080fd5b61137d878286016110ba565b60208301525060408301358281111561139557600080fd5b6113a1878286016110ba565b6040830152506060830135828111156113b957600080fd5b6113c5878286016110ba565b6060830152506080830135828111156113dd57600080fd5b6113e9878286016110ba565b60808301525060a08301358281111561140157600080fd5b61140d8782860161114e565b60a08301525060c08301358281111561142557600080fd5b611431878286016111de565b60c08301525060e08301358281111561144957600080fd5b611455878286016110ba565b60e0830152506101008381013590820152610120808401358381111561147a57600080fd5b6114868882870161114e565b82840152505061014080840135838111156114a057600080fd5b6114ac888287016112a4565b918301919091525095945050505050565b600080600060a084860312156114d257600080fd5b83359250602084013591506114ea8560408601611239565b90509250925092565b60005b8381101561150e5781810151838201526020016114f6565b8381111561151d576000848401525b50505050565b60208152600082518060208401526115428160408501602087016114f3565b601f01601f19169190910160400192915050565b6000806040838503121561156957600080fd5b82359150602083013567ffffffffffffffff81111561158757600080fd5b611593858286016112a4565b9150509250929050565b634e487b7160e01b600052601160045260246000fd5b600082198211156115c6576115c661159d565b500190565b634e487b7160e01b600052601260045260246000fd5b6000826115f0576115f06115cb565b500490565b7f736b616c65436f6e6669672e73436861696e2e6e6f6465732e5b00000000000081526000825161162d81601a8501602087016114f3565b662e9737bbb732b960c91b601a939091019283015250602101919050565b6000825161165d8184602087016114f3565b9190910192915050565b634e487b7160e01b600052603260045260246000fd5b60006001820161168f5761168f61159d565b5060010190565b6000828210156116a8576116a861159d565b500390565b6000826116bc576116bc6115cb565b500690565b828152600082516116d98160208501602087016114f3565b919091016020019392505050565b6000602082840312156116f957600080fd5b81516001600160a01b03811681146101d257600080fd5b60006020828403121561172257600080fd5b5051919050565b663d9131b4b2111d60c91b8152835160009061174c8160078501602089016114f3565b6716113ab934911d1160c11b600791840191820152845161177481600f8401602089016114f3565b6d11161132b731b7b234b733911d1160911b600f929091019182015283516117a381601d8401602088016114f3565b61088b60f21b601d9290910191820152601f0195945050505050565b66113a34b6b2911d60c91b815281516000906117e28160078501602087016114f3565b600b60fa1b6007939091019283015250600801919050565b601160f91b815281516000906118178160018501602087016114f3565b61088b60f21b6001939091019283015250600301919050565b600083516118428184602088016114f3565b8351908301906118568183602088016114f3565b01949350505050565b601160f91b8152815160009061187c8160018501602087016114f3565b6208974b60ea1b6001939091019283015250600401919050565b600085516118a8818460208a016114f3565b8551908301906118bc818360208a016114f3565b85519101906118cf8183602089016114f3565b84519101906118e28183602088016114f3565b019695505050505050565b634e487b7160e01b600052602160045260246000fd5b691132ba3420b834911d1160b11b8152815160009061192981600a8501602087016114f3565b61088b60f21b600a939091019283015250600c01919050565b68113830b930b6b9911d60b91b815281516000906119678160098501602087016114f3565b600b60fa1b6009939091019283015250600a01919050565b600083516119918184602088016114f3565b601160f91b90830190815283516119af8160018401602088016114f3565b61088b60f21b60019290910191820152600301949350505050565b600083516119dc8184602088016114f3565b601160f91b90830190815283516119fa8160018401602088016114f3565b6208974b60ea1b60019290910191820152600401949350505050565b60008351611a288184602088016114f3565b835190830190611a3c8183602088016114f3565b600b60fa1b9101908152600101949350505050565b60008351611a638184602088016114f3565b835190830190611a778183602088016114f3565b61174b60f21b9101908152600201949350505050565b67113837b9ba111d1160c11b81528151600090611ab18160088501602087016114f3565b61088b60f21b6008939091019283015250600a01919050565b60008451611adc8184602089016114f3565b845190830190611af08183602089016114f3565b8451910190611b038183602088016114f3565b019594505050505056fe736b616c65436f6e6669672e6e6f6465496e666f2e77616c6c6574732e696d612e6ea26469706673582212203bbd4f73cedc6b582c4a74c39a766f8f4946573e19f5ec6ea8e343df6d531ebe64736f6c634300080d0033",
  "linkReferences": {},
  "deployedLinkReferences": {}
}